{
  "contractName": "EcoIntegrity",
  "abi": [
    {
      "anonymous": false,
      "inputs": [
        {
          "indexed": false,
          "internalType": "string",
          "name": "message",
          "type": "string"
        }
      ],
      "name": "DebugLog",
      "type": "event"
    },
    {
      "anonymous": false,
      "inputs": [
        {
          "indexed": false,
          "internalType": "uint256",
          "name": "id",
          "type": "uint256"
        },
        {
          "indexed": false,
          "internalType": "string",
          "name": "dataHash",
          "type": "string"
        },
        {
          "indexed": false,
          "internalType": "uint256",
          "name": "timestamp",
          "type": "uint256"
        },
        {
          "indexed": false,
          "internalType": "address",
          "name": "logger",
          "type": "address"
        }
      ],
      "name": "NewLog",
      "type": "event"
    },
    {
      "inputs": [],
      "name": "logCount",
      "outputs": [
        {
          "internalType": "uint256",
          "name": "",
          "type": "uint256"
        }
      ],
      "stateMutability": "view",
      "type": "function",
      "constant": true
    },
    {
      "inputs": [
        {
          "internalType": "uint256",
          "name": "",
          "type": "uint256"
        }
      ],
      "name": "logs",
      "outputs": [
        {
          "internalType": "uint256",
          "name": "id",
          "type": "uint256"
        },
        {
          "internalType": "string",
          "name": "dataHash",
          "type": "string"
        },
        {
          "internalType": "uint256",
          "name": "timestamp",
          "type": "uint256"
        },
        {
          "internalType": "address",
          "name": "logger",
          "type": "address"
        }
      ],
      "stateMutability": "view",
      "type": "function",
      "constant": true
    },
    {
      "inputs": [
        {
          "internalType": "string",
          "name": "dataHash",
          "type": "string"
        }
      ],
      "name": "logData",
      "outputs": [],
      "stateMutability": "nonpayable",
      "type": "function"
    },
    {
      "inputs": [
        {
          "internalType": "uint256",
          "name": "id",
          "type": "uint256"
        }
      ],
      "name": "getLog",
      "outputs": [
        {
          "internalType": "string",
          "name": "dataHash",
          "type": "string"
        },
        {
          "internalType": "uint256",
          "name": "timestamp",
          "type": "uint256"
        },
        {
          "internalType": "address",
          "name": "logger",
          "type": "address"
        }
      ],
      "stateMutability": "view",
      "type": "function",
      "constant": true
    }
  ],
  "bytecode": "0x60806040526000805534801561001457600080fd5b50610ad5806100246000396000f3fe608060405234801561001057600080fd5b506004361061004c5760003560e01c80633206b2c6146100515780635c3f3e0c14610083578063a503898f1461009f578063e79899bd146100bd575b600080fd5b61006b6004803603810190610066919061062f565b6100f0565b60405161007a9392919061076f565b60405180910390f35b61009d600480360381019061009891906105ee565b610230565b005b6100a76103f0565b6040516100b4919061080d565b60405180910390f35b6100d760048036038101906100d2919061062f565b6103f6565b6040516100e79493929190610828565b60405180910390f35b60606000806000600160008681526020019081526020016000206040518060800160405290816000820154815260200160018201805461012f9061096f565b80601f016020809104026020016040519081016040528092919081815260200182805461015b9061096f565b80156101a85780601f1061017d576101008083540402835291602001916101a8565b820191906000526020600020905b81548152906001019060200180831161018b57829003601f168201915b50505050508152602001600282015481526020016003820160009054906101000a900473ffffffffffffffffffffffffffffffffffffffff1673ffffffffffffffffffffffffffffffffffffffff1673ffffffffffffffffffffffffffffffffffffffff16815250509050806020015181604001518260600151935093509350509193909250565b7f4be5e2ddd7b814bfc07153581bbbda6ea3d62d61c270f9788cae2f0297e18ae860405161025d906107ad565b60405180910390a1600080815480929190610277906109a1565b9190505550604051806080016040528060005481526020018281526020014281526020013373ffffffffffffffffffffffffffffffffffffffff1681525060016000805481526020019081526020016000206000820151816000015560208201518160010190805190602001906102ef9291906104ce565b506040820151816002015560608201518160030160006101000a81548173ffffffffffffffffffffffffffffffffffffffff021916908373ffffffffffffffffffffffffffffffffffffffff1602179055509050507f4be5e2ddd7b814bfc07153581bbbda6ea3d62d61c270f9788cae2f0297e18ae8604051610371906107cd565b60405180910390a17f18e772ef8d2184f2b359eafb3ad0cdf66109e962dd3972ba30874240a43e40916000548242336040516103b09493929190610828565b60405180910390a17f4be5e2ddd7b814bfc07153581bbbda6ea3d62d61c270f9788cae2f0297e18ae86040516103e5906107ed565b60405180910390a150565b60005481565b600160205280600052604060002060009150905080600001549080600101805461041f9061096f565b80601f016020809104026020016040519081016040528092919081815260200182805461044b9061096f565b80156104985780601f1061046d57610100808354040283529160200191610498565b820191906000526020600020905b81548152906001019060200180831161047b57829003601f168201915b5050505050908060020154908060030160009054906101000a900473ffffffffffffffffffffffffffffffffffffffff16905084565b8280546104da9061096f565b90600052602060002090601f0160209004810192826104fc5760008555610543565b82601f1061051557805160ff1916838001178555610543565b82800160010185558215610543579182015b82811115610542578251825591602001919060010190610527565b5b5090506105509190610554565b5090565b5b8082111561056d576000816000905550600101610555565b5090565b600061058461057f846108a5565b610874565b90508281526020810184848401111561059c57600080fd5b6105a784828561092d565b509392505050565b600082601f8301126105c057600080fd5b81356105d0848260208601610571565b91505092915050565b6000813590506105e881610a88565b92915050565b60006020828403121561060057600080fd5b600082013567ffffffffffffffff81111561061a57600080fd5b610626848285016105af565b91505092915050565b60006020828403121561064157600080fd5b600061064f848285016105d9565b91505092915050565b610661816108f1565b82525050565b6000610672826108d5565b61067c81856108e0565b935061068c81856020860161093c565b61069581610a77565b840191505092915050565b60006106ad6019836108e0565b91507f456e746572696e67206c6f67446174612066756e6374696f6e000000000000006000830152602082019050919050565b60006106ed600b836108e0565b91507f4c6f6720637265617465640000000000000000000000000000000000000000006000830152602082019050919050565b600061072d6018836108e0565b91507f45786974696e67206c6f67446174612066756e6374696f6e00000000000000006000830152602082019050919050565b61076981610923565b82525050565b600060608201905081810360008301526107898186610667565b90506107986020830185610760565b6107a56040830184610658565b949350505050565b600060208201905081810360008301526107c6816106a0565b9050919050565b600060208201905081810360008301526107e6816106e0565b9050919050565b6000602082019050818103600083015261080681610720565b9050919050565b60006020820190506108226000830184610760565b92915050565b600060808201905061083d6000830187610760565b818103602083015261084f8186610667565b905061085e6040830185610760565b61086b6060830184610658565b95945050505050565b6000604051905081810181811067ffffffffffffffff8211171561089b5761089a610a48565b5b8060405250919050565b600067ffffffffffffffff8211156108c0576108bf610a48565b5b601f19601f8301169050602081019050919050565b600081519050919050565b600082825260208201905092915050565b60006108fc82610903565b9050919050565b600073ffffffffffffffffffffffffffffffffffffffff82169050919050565b6000819050919050565b82818337600083830152505050565b60005b8381101561095a57808201518184015260208101905061093f565b83811115610969576000848401525b50505050565b6000600282049050600182168061098757607f821691505b6020821081141561099b5761099a610a19565b5b50919050565b60006109ac82610923565b91507fffffffffffffffffffffffffffffffffffffffffffffffffffffffffffffffff8214156109df576109de6109ea565b5b600182019050919050565b7f4e487b7100000000000000000000000000000000000000000000000000000000600052601160045260246000fd5b7f4e487b7100000000000000000000000000000000000000000000000000000000600052602260045260246000fd5b7f4e487b7100000000000000000000000000000000000000000000000000000000600052604160045260246000fd5b6000601f19601f8301169050919050565b610a9181610923565b8114610a9c57600080fd5b5056fea26469706673582212207001ed710e4ce68890eab19d3763480fbb28c773cf8a44b0cee15ec5c112769c64736f6c63430008000033",
  "immutableReferences": {},
  "source": "// SPDX-License-Identifier: MIT\npragma solidity ^0.8.0;\n\ncontract EcoIntegrity {\n    struct DataLog {\n        uint id;\n        string dataHash;\n        uint timestamp;\n        address logger;\n    }\n\n    uint public logCount = 0;\n    mapping(uint => DataLog) public logs;\n\n    // Event for debugging purposes\n    event DebugLog(string message);\n    event NewLog(uint id, string dataHash, uint timestamp, address logger);\n\n    // Updated logData function with debugging logs\n    function logData(string memory dataHash) public {\n        // Emit a debug event to check function entry\n        emit DebugLog(\"Entering logData function\");\n\n        // Increase log count and log the data\n        logCount++;\n        logs[logCount] = DataLog(logCount, dataHash, block.timestamp, msg.sender);\n\n        // Emit a debug event to check log creation\n        emit DebugLog(\"Log created\");\n\n        // Emit event with log details\n        emit NewLog(logCount, dataHash, block.timestamp, msg.sender);\n\n        // Emit a debug event to check function exit\n        emit DebugLog(\"Exiting logData function\");\n    }\n\n    function getLog(uint id) public view returns (string memory dataHash, uint timestamp, address logger) {\n        DataLog memory logEntry = logs[id];\n        return (logEntry.dataHash, logEntry.timestamp, logEntry.logger);\n    }\n}\n",
  "sourcePath": "/Users/jayaprakash/EcoIntegritySim/eco-integrity-contract/contracts/EcoIntegrity.sol",
  "compiler": {
    "name": "solc",
    "version": "0.8.0+commit.c7dfd78e.Emscripten.clang"
  },
  "schemaVersion": "3.4.16",
  "updatedAt": "2024-10-18T05:17:14.475Z",
  "networkType": "ethereum",
  "devdoc": {
    "kind": "dev",
    "methods": {},
    "version": 1
  },
  "userdoc": {
    "kind": "user",
    "methods": {},
    "version": 1
  }
}